{
  "contractName": "Asset",
  "abi": [
    {
      "inputs": [
        {
          "name": "_name",
          "type": "string"
        },
        {
          "name": "_rock",
          "type": "uint256"
        },
        {
          "name": "_paper",
          "type": "uint256"
        },
        {
          "name": "_scissors",
          "type": "uint256"
        }
      ],
      "payable": false,
      "stateMutability": "nonpayable",
      "type": "constructor"
    },
    {
      "constant": false,
      "inputs": [
        {
          "name": "a",
          "type": "address"
        }
      ],
      "name": "allowTransfer",
      "outputs": [],
      "payable": false,
      "stateMutability": "nonpayable",
      "type": "function"
    },
    {
      "constant": false,
      "inputs": [
        {
          "name": "a",
          "type": "address"
        }
      ],
      "name": "transfer",
      "outputs": [],
      "payable": false,
      "stateMutability": "nonpayable",
      "type": "function"
    },
    {
      "constant": true,
      "inputs": [],
      "name": "getRock",
      "outputs": [
        {
          "name": "",
          "type": "uint256"
        }
      ],
      "payable": false,
      "stateMutability": "view",
      "type": "function"
    },
    {
      "constant": true,
      "inputs": [],
      "name": "getPaper",
      "outputs": [
        {
          "name": "",
          "type": "uint256"
        }
      ],
      "payable": false,
      "stateMutability": "view",
      "type": "function"
    },
    {
      "constant": true,
      "inputs": [],
      "name": "getScissors",
      "outputs": [
        {
          "name": "",
          "type": "uint256"
        }
      ],
      "payable": false,
      "stateMutability": "view",
      "type": "function"
    },
    {
      "constant": true,
      "inputs": [],
      "name": "getName",
      "outputs": [
        {
          "name": "",
          "type": "string"
        }
      ],
      "payable": false,
      "stateMutability": "view",
      "type": "function"
    }
  ],
  "bytecode": "0x608060405234801561001057600080fd5b506040516107eb3803806107eb83398101806040528101908080518201929190602001805190602001909291908051906020019092919080519060200190929190505050336000806101000a81548173ffffffffffffffffffffffffffffffffffffffff021916908373ffffffffffffffffffffffffffffffffffffffff16021790555083600290805190602001906100aa9291906100c9565b508260038190555081600481905550806005819055505050505061016e565b828054600181600116156101000203166002900490600052602060002090601f016020900481019282601f1061010a57805160ff1916838001178555610138565b82800160010185558215610138579182015b8281111561013757825182559160200191906001019061011c565b5b5090506101459190610149565b5090565b61016b91905b8082111561016757600081600090555060010161014f565b5090565b90565b61066e8061017d6000396000f300608060405260043610610078576000357c0100000000000000000000000000000000000000000000000000000000900463ffffffff16806317d7de7c1461007d5780631a6952301461010d5780632a4c872f146101505780633b3379251461017b578063b3490bfc146101a6578063c6e3583c146101e9575b600080fd5b34801561008957600080fd5b50610092610214565b6040518080602001828103825283818151815260200191508051906020019080838360005b838110156100d25780820151818401526020810190506100b7565b50505050905090810190601f1680156100ff5780820380516001836020036101000a031916815260200191505b509250505060405180910390f35b34801561011957600080fd5b5061014e600480360381019080803573ffffffffffffffffffffffffffffffffffffffff1690602001909291905050506102b6565b005b34801561015c57600080fd5b50610165610457565b6040518082815260200191505060405180910390f35b34801561018757600080fd5b50610190610461565b6040518082815260200191505060405180910390f35b3480156101b257600080fd5b506101e7600480360381019080803573ffffffffffffffffffffffffffffffffffffffff16906020019092919050505061046b565b005b3480156101f557600080fd5b506101fe610638565b6040518082815260200191505060405180910390f35b606060028054600181600116156101000203166002900480601f0160208091040260200160405190810160405280929190818152602001828054600181600116156101000203166002900480156102ac5780601f10610281576101008083540402835291602001916102ac565b820191906000526020600020905b81548152906001019060200180831161028f57829003601f168201915b5050505050905090565b6000809054906101000a900473ffffffffffffffffffffffffffffffffffffffff1673ffffffffffffffffffffffffffffffffffffffff163373ffffffffffffffffffffffffffffffffffffffff16148061035e5750600160009054906101000a900473ffffffffffffffffffffffffffffffffffffffff1673ffffffffffffffffffffffffffffffffffffffff163373ffffffffffffffffffffffffffffffffffffffff16145b15156103d2576040517f08c379a000000000000000000000000000000000000000000000000000000000815260040180806020018281038252600e8152602001807f43616e2774207472616e7366657200000000000000000000000000000000000081525060200191505060405180910390fd5b806000806101000a81548173ffffffffffffffffffffffffffffffffffffffff021916908373ffffffffffffffffffffffffffffffffffffffff1602179055506000600160006101000a81548173ffffffffffffffffffffffffffffffffffffffff021916908373ffffffffffffffffffffffffffffffffffffffff16021790555050565b6000600554905090565b6000600454905090565b6000809054906101000a900473ffffffffffffffffffffffffffffffffffffffff1673ffffffffffffffffffffffffffffffffffffffff163373ffffffffffffffffffffffffffffffffffffffff1614151561052f576040517f08c379a000000000000000000000000000000000000000000000000000000000815260040180806020018281038252600a8152602001807f4f6e6c79206f776e65720000000000000000000000000000000000000000000081525060200191505060405180910390fd5b6000809054906101000a900473ffffffffffffffffffffffffffffffffffffffff1673ffffffffffffffffffffffffffffffffffffffff168173ffffffffffffffffffffffffffffffffffffffff16141515156105f4576040517f08c379a000000000000000000000000000000000000000000000000000000000815260040180806020018281038252601a8152602001807f596f7520616c7265616479206f776e207468697320617373657400000000000081525060200191505060405180910390fd5b80600160006101000a81548173ffffffffffffffffffffffffffffffffffffffff021916908373ffffffffffffffffffffffffffffffffffffffff16021790555050565b60006003549050905600a165627a7a723058200391c185c0f76bf42b41d64c9cb65fa318b1744de6dcb5eb46117ed412e2abe10029",
  "source": "pragma solidity ^0.4.23;\n\ncontract Asset {\n    \n    address owner;\n\n    address allowed;\n\n    string name;\n\n    uint rock;\n    uint paper;\n    uint scissors;\n\n    constructor(string _name, uint _rock, uint _paper, uint _scissors) public {\n        owner = msg.sender;\n        name = _name;\n        rock = _rock;\n        paper = _paper;\n        scissors = _scissors;\n\n    }\n\n    function allowTransfer(address a) public {\n        require(msg.sender == owner, \"Only owner\");\n        require(a != owner, \"You already own this asset\");\n        allowed = a;\n    }\n\n    function transfer(address a) public {\n        require(msg.sender == owner || msg.sender == allowed, \"Can't transfer\");\n\n        owner = a;\n        allowed = address(0);\n    }\n\n    function getRock() public view returns (uint) {\n        return rock;\n    }\n\n    function getPaper() public view returns (uint) {\n        return paper;\n    }\n\n    function getScissors() public view returns (uint) {\n        return scissors;\n    }\n\n    function getName() public view returns (string) {\n        return name;\n    }\n}",
  "sourcePath": "/Users/vihejuyl/kasmd/fabric-samples/pelikurssi/contracts/Asset.sol",
  "compiler": {
    "name": "solc",
    "version": "0.4.24+commit.e67f0147.Emscripten.clang"
  },
  "schemaVersion": "2.0.0",
  "updatedAt": "2018-10-05T11:29:06.580Z"
}