{
  "contractName": "Marketplace",
  "abi": [
    {
      "inputs": [],
      "payable": false,
      "stateMutability": "nonpayable",
      "type": "constructor"
    },
    {
      "constant": false,
      "inputs": [
        {
          "name": "a",
          "type": "address"
        }
      ],
      "name": "addAsset",
      "outputs": [],
      "payable": false,
      "stateMutability": "nonpayable",
      "type": "function"
    },
    {
      "constant": false,
      "inputs": [
        {
          "name": "a",
          "type": "address"
        }
      ],
      "name": "takeAsset",
      "outputs": [],
      "payable": false,
      "stateMutability": "nonpayable",
      "type": "function"
    },
    {
      "constant": true,
      "inputs": [],
      "name": "getAssets",
      "outputs": [
        {
          "name": "",
          "type": "address[]"
        }
      ],
      "payable": false,
      "stateMutability": "view",
      "type": "function"
    }
  ],
  "bytecode": "0x608060405234801561001057600080fd5b5061074b806100206000396000f300608060405260043610610057576000357c0100000000000000000000000000000000000000000000000000000000900463ffffffff168063298410e51461005c57806367e4ac2c1461009f57806384593acf1461010b575b600080fd5b34801561006857600080fd5b5061009d600480360381019080803573ffffffffffffffffffffffffffffffffffffffff16906020019092919050505061014e565b005b3480156100ab57600080fd5b506100b46102b3565b6040518080602001828103825283818151815260200191508051906020019060200280838360005b838110156100f75780820151818401526020810190506100dc565b505050509050019250505060405180910390f35b34801561011757600080fd5b5061014c600480360381019080803573ffffffffffffffffffffffffffffffffffffffff169060200190929190505050610341565b005b8073ffffffffffffffffffffffffffffffffffffffff16631a695230306040518263ffffffff167c0100000000000000000000000000000000000000000000000000000000028152600401808273ffffffffffffffffffffffffffffffffffffffff1673ffffffffffffffffffffffffffffffffffffffff168152602001915050600060405180830381600087803b1580156101e957600080fd5b505af11580156101fd573d6000803e3d6000fd5b5050505060008190806001815401808255809150509060018203906000526020600020016000909192909190916101000a81548173ffffffffffffffffffffffffffffffffffffffff021916908373ffffffffffffffffffffffffffffffffffffffff16021790555050600080549050600160008373ffffffffffffffffffffffffffffffffffffffff1673ffffffffffffffffffffffffffffffffffffffff1681526020019081526020016000208190555050565b6060600080548060200260200160405190810160405280929190818152602001828054801561033757602002820191906000526020600020905b8160009054906101000a900473ffffffffffffffffffffffffffffffffffffffff1673ffffffffffffffffffffffffffffffffffffffff16815260200190600101908083116102ed575b5050505050905090565b6000600160008373ffffffffffffffffffffffffffffffffffffffff1673ffffffffffffffffffffffffffffffffffffffff168152602001908152602001600020541115156103f8576040517f08c379a000000000000000000000000000000000000000000000000000000000815260040180806020018281038252600f8152602001807f4173736574206e6f7420666f756e64000000000000000000000000000000000081525060200191505060405180910390fd5b8073ffffffffffffffffffffffffffffffffffffffff1663b3490bfc336040518263ffffffff167c0100000000000000000000000000000000000000000000000000000000028152600401808273ffffffffffffffffffffffffffffffffffffffff1673ffffffffffffffffffffffffffffffffffffffff168152602001915050600060405180830381600087803b15801561049357600080fd5b505af11580156104a7573d6000803e3d6000fd5b505050508073ffffffffffffffffffffffffffffffffffffffff16631a695230336040518263ffffffff167c0100000000000000000000000000000000000000000000000000000000028152600401808273ffffffffffffffffffffffffffffffffffffffff1673ffffffffffffffffffffffffffffffffffffffff168152602001915050600060405180830381600087803b15801561054657600080fd5b505af115801561055a573d6000803e3d6000fd5b50505050600060018060008473ffffffffffffffffffffffffffffffffffffffff1673ffffffffffffffffffffffffffffffffffffffff16815260200190815260200160002054038154811015156105ae57fe5b9060005260206000200160006101000a81549073ffffffffffffffffffffffffffffffffffffffff021916905560006001600080549050038154811015156105f257fe5b9060005260206000200160009054906101000a900473ffffffffffffffffffffffffffffffffffffffff16600060018060008573ffffffffffffffffffffffffffffffffffffffff1673ffffffffffffffffffffffffffffffffffffffff168152602001908152602001600020540381548110151561066d57fe5b9060005260206000200160006101000a81548173ffffffffffffffffffffffffffffffffffffffff021916908373ffffffffffffffffffffffffffffffffffffffff16021790555060008054809190600190036106ca91906106ce565b5050565b8154818355818111156106f5578183600052602060002091820191016106f491906106fa565b5b505050565b61071c91905b80821115610718576000816000905550600101610700565b5090565b905600a165627a7a7230582053aa1b73e93d6a762f4863f0e72cdc4b553f3356c9533bf00b5e829462d190df0029",
  "source": "pragma solidity ^0.4.23;\n\nimport \"./Asset.sol\";\n\ncontract Marketplace {\n    Asset[] assets;\n    mapping(address=>uint) assetIndexes;\n\n    constructor() public{\n\n    }\n\n    function addAsset(Asset a) public {\n        a.transfer(this);\n        assets.push(a);\n        assetIndexes[a] = assets.length;\n    }\n\n    function takeAsset(Asset a) public {\n        require(assetIndexes[a] > 0, \"Asset not found\");\n        a.allowTransfer(msg.sender);\n        a.transfer(msg.sender);\n        delete assets[assetIndexes[a] - 1];\n        assets[assetIndexes[a] - 1] = assets[assets.length - 1];\n        assets.length--;\n    }\n\n    function getAssets() public view returns (Asset[]) {\n        return assets;\n    }\n\n\n}",
  "sourcePath": "/Users/vihejuyl/kasmd/fabric-samples/pelikurssi/contracts/Marketplace.sol",
  "compiler": {
    "name": "solc",
    "version": "0.4.24+commit.e67f0147.Emscripten.clang"
  },
  "schemaVersion": "2.0.0",
  "updatedAt": "2018-10-05T11:29:06.583Z"
}